{
  "contractName": "Test",
  "abi": [
    {
      "constant": true,
      "inputs": [],
      "name": "count",
      "outputs": [
        {
          "name": "",
          "type": "uint256"
        }
      ],
      "payable": false,
      "stateMutability": "view",
      "type": "function"
    },
    {
      "constant": true,
      "inputs": [],
      "name": "lastParticipant",
      "outputs": [
        {
          "name": "",
          "type": "address"
        }
      ],
      "payable": false,
      "stateMutability": "view",
      "type": "function"
    },
    {
      "anonymous": false,
      "inputs": [
        {
          "indexed": false,
          "name": "message",
          "type": "string"
        },
        {
          "indexed": false,
          "name": "newCount",
          "type": "uint256"
        }
      ],
      "name": "Update",
      "type": "event"
    },
    {
      "constant": false,
      "inputs": [],
      "name": "plus",
      "outputs": [],
      "payable": false,
      "stateMutability": "nonpayable",
      "type": "function"
    },
    {
      "constant": false,
      "inputs": [],
      "name": "minus",
      "outputs": [],
      "payable": false,
      "stateMutability": "nonpayable",
      "type": "function"
    }
  ],
  "bytecode": "0x6080604052606460005534801561001557600080fd5b5061019e806100256000396000f3fe608060405234801561001057600080fd5b506004361061004c5760003560e01c806306661abd1461005157806314434fa51461006b57806318b0c3fd14610075578063bfe7e4e31461007d575b600080fd5b6100596100a1565b60408051918252519081900360200190f35b6100736100a7565b005b610073610106565b610085610163565b604080516001600160a01b039092168252519081900360200190f35b60005481565b600080546000190190819055604080516020810192909252808252600582820152600160d81b644d494e5553026060830152517f68569b533bfdeb53ee0f87318e7aa1ad56335f80086c45dfaa733c24fa43ea7b9181900360800190a1565b6000805460010190819055604080516020810192909252808252600482820152600160e01b63504c5553026060830152517f68569b533bfdeb53ee0f87318e7aa1ad56335f80086c45dfaa733c24fa43ea7b9181900360800190a1565b6001546001600160a01b03168156fea165627a7a72305820d2ef5a89dac49e8f63ec38e0c51a72c8873aacd6473868a15264158141fa6e390029",
  "source": "pragma solidity 0.5.6;\r\ncontract Test {\r\n  uint public count = 100;\r\n  address public lastParticipant;\r\n  event Update(string message,uint newCount);\r\n\r\n  function plus() public {\r\n    count = count + 1;\r\n    emit Update(\"PLUS\",count);\r\n  }\r\n  function minus() public {\r\n    count = count - 1;\r\n    emit Update(\"MINUS\",count);\r\n  }\r\n}\r\n\r\n//",
  "sourcePath": "C:/Users/kdch0/Desktop/klaytn/klaytn-contracts/contracts/Test.sol",
  "compiler": {
    "name": "solc",
    "version": "0.5.6+commit.b259423e.Emscripten.clang"
  },
  "schemaVersion": "3.0.11",
  "updatedAt": "2021-11-10T16:15:58.162Z",
  "devdoc": {
    "methods": {}
  },
  "userdoc": {
    "methods": {}
  }
}